{
  "_format": "hh-sol-artifact-1",
  "contractName": "Transactions",
  "sourceName": "contracts/Transactions.sol",
  "abi": [
    {
      "anonymous": false,
      "inputs": [
        {
          "indexed": false,
          "internalType": "address",
          "name": "from",
          "type": "address"
        },
        {
          "indexed": false,
          "internalType": "address",
          "name": "receiver",
          "type": "address"
        },
        {
          "indexed": false,
          "internalType": "uint256",
          "name": "amount",
          "type": "uint256"
        },
        {
          "indexed": false,
          "internalType": "string",
          "name": "message",
          "type": "string"
        },
        {
          "indexed": false,
          "internalType": "uint256",
          "name": "timesamp",
          "type": "uint256"
        },
        {
          "indexed": false,
          "internalType": "string",
          "name": "keyword",
          "type": "string"
        }
      ],
      "name": "Transfer",
      "type": "event"
    },
    {
      "inputs": [
        {
          "internalType": "address payable",
          "name": "receiver",
          "type": "address"
        },
        {
          "internalType": "uint256",
          "name": "amount",
          "type": "uint256"
        },
        {
          "internalType": "string",
          "name": "message",
          "type": "string"
        },
        {
          "internalType": "string",
          "name": "keyword",
          "type": "string"
        }
      ],
      "name": "addToBlockchain",
      "outputs": [],
      "stateMutability": "nonpayable",
      "type": "function"
    },
    {
      "inputs": [],
      "name": "getAllTransactions",
      "outputs": [
        {
          "components": [
            {
              "internalType": "address",
              "name": "from",
              "type": "address"
            },
            {
              "internalType": "address",
              "name": "receiver",
              "type": "address"
            },
            {
              "internalType": "uint256",
              "name": "amount",
              "type": "uint256"
            },
            {
              "internalType": "string",
              "name": "message",
              "type": "string"
            },
            {
              "internalType": "uint256",
              "name": "timesamp",
              "type": "uint256"
            },
            {
              "internalType": "string",
              "name": "keyword",
              "type": "string"
            }
          ],
          "internalType": "struct Transactions.TransferStruct[]",
          "name": "",
          "type": "tuple[]"
        }
      ],
      "stateMutability": "view",
      "type": "function"
    },
    {
      "inputs": [],
      "name": "getTransactionCount",
      "outputs": [
        {
          "internalType": "uint256",
          "name": "",
          "type": "uint256"
        }
      ],
      "stateMutability": "view",
      "type": "function"
    }
  ],
  "bytecode": "0x608060405234801561001057600080fd5b506107a2806100206000396000f3fe608060405234801561001057600080fd5b50600436106100415760003560e01c806327506f53146100465780632e7700f014610064578063cc2d7ead14610075575b600080fd5b61004e61008a565b60405161005b91906104c3565b60405180910390f35b60005460405190815260200161005b565b610088610083366004610627565b610245565b005b60606001805480602002602001604051908101604052809291908181526020016000905b8282101561023c5760008481526020908190206040805160c0810182526006860290920180546001600160a01b0390811684526001820154169383019390935260028301549082015260038201805491929160608401919061010f906106b3565b80601f016020809104026020016040519081016040528092919081815260200182805461013b906106b3565b80156101885780601f1061015d57610100808354040283529160200191610188565b820191906000526020600020905b81548152906001019060200180831161016b57829003601f168201915b50505050508152602001600482015481526020016005820180546101ab906106b3565b80601f01602080910402602001604051908101604052809291908181526020018280546101d7906106b3565b80156102245780601f106101f957610100808354040283529160200191610224565b820191906000526020600020905b81548152906001019060200180831161020757829003601f168201915b505050505081525050815260200190600101906100ae565b50505050905090565b6000546102539060016106ee565b60009081556040805160c0810182523381526001600160a01b0387811660208084019182529383018881526060840188815242608086015260a085018890526001805480820182559752845160069097027fb10e2d527612073b26eecdfd717e6a320cf44b4afac2b0732d9fcbe2b7fa0cf6810180549886166001600160a01b0319998a1617815593517fb10e2d527612073b26eecdfd717e6a320cf44b4afac2b0732d9fcbe2b7fa0cf78201805491909616981697909717909355517fb10e2d527612073b26eecdfd717e6a320cf44b4afac2b0732d9fcbe2b7fa0cf8860155905180519294919361036d937fb10e2d527612073b26eecdfd717e6a320cf44b4afac2b0732d9fcbe2b7fa0cf9909301929101906103dd565b506080820151600482015560a082015180516103939160058401916020909101906103dd565b5050507f416cfa4330a4565f45c2fd2dd4826a83a37443aba2ce6f79477c7355afac35fa3385858542866040516103cf96959493929190610714565b60405180910390a150505050565b8280546103e9906106b3565b90600052602060002090601f01602090048101928261040b5760008555610451565b82601f1061042457805160ff1916838001178555610451565b82800160010185558215610451579182015b82811115610451578251825591602001919060010190610436565b5061045d929150610461565b5090565b5b8082111561045d5760008155600101610462565b6000815180845260005b8181101561049c57602081850181015186830182015201610480565b818111156104ae576000602083870101525b50601f01601f19169290920160200192915050565b60006020808301818452808551808352604092508286019150828160051b87010184880160005b8381101561057657888303603f19018552815180516001600160a01b039081168552888201511688850152868101518785015260608082015160c0828701819052919061053983880182610476565b92505050608080830151818701525060a080830151925085820381870152506105628183610476565b9689019694505050908601906001016104ea565b509098975050505050505050565b634e487b7160e01b600052604160045260246000fd5b600082601f8301126105ab57600080fd5b813567ffffffffffffffff808211156105c6576105c6610584565b604051601f8301601f19908116603f011681019082821181831017156105ee576105ee610584565b8160405283815286602085880101111561060757600080fd5b836020870160208301376000602085830101528094505050505092915050565b6000806000806080858703121561063d57600080fd5b84356001600160a01b038116811461065457600080fd5b935060208501359250604085013567ffffffffffffffff8082111561067857600080fd5b6106848883890161059a565b9350606087013591508082111561069a57600080fd5b506106a78782880161059a565b91505092959194509250565b600181811c908216806106c757607f821691505b602082108114156106e857634e487b7160e01b600052602260045260246000fd5b50919050565b6000821982111561070f57634e487b7160e01b600052601160045260246000fd5b500190565b6001600160a01b038781168252861660208201526040810185905260c06060820181905260009061074790830186610476565b84608084015282810360a084015261075f8185610476565b999850505050505050505056fea26469706673582212209c9de973fc69b5fd08dd9840f8d2a8f58642b9563f623b5fb841ad59414baf0664736f6c634300080a0033",
  "linkReferences": {},
  "deployedLinkReferences": {}
}